{"abi":[{"type":"constructor","inputs":[{"name":"rescueDelay","type":"uint32","internalType":"uint32"},{"name":"accessToken","type":"address","internalType":"contract IERC20"}],"stateMutability":"nonpayable"},{"type":"function","name":"FACTORY","inputs":[],"outputs":[{"name":"","type":"address","internalType":"address"}],"stateMutability":"view"},{"type":"function","name":"PROXY_BYTECODE_HASH","inputs":[],"outputs":[{"name":"","type":"bytes32","internalType":"bytes32"}],"stateMutability":"view"},{"type":"function","name":"RESCUE_DELAY","inputs":[],"outputs":[{"name":"","type":"uint256","internalType":"uint256"}],"stateMutability":"view"},{"type":"function","name":"cancel","inputs":[{"name":"immutables","type":"tuple","internalType":"struct IBaseEscrow.Immutables","components":[{"name":"orderHash","type":"bytes32","internalType":"bytes32"},{"name":"hashlock","type":"bytes32","internalType":"bytes32"},{"name":"maker","type":"uint256","internalType":"Address"},{"name":"taker","type":"uint256","internalType":"Address"},{"name":"token","type":"uint256","internalType":"Address"},{"name":"amount","type":"uint256","internalType":"uint256"},{"name":"safetyDeposit","type":"uint256","internalType":"uint256"},{"name":"timelocks","type":"uint256","internalType":"Timelocks"}]}],"outputs":[],"stateMutability":"nonpayable"},{"type":"function","name":"deposit","inputs":[{"name":"amount","type":"uint256","internalType":"uint256"},{"name":"immutables","type":"tuple","internalType":"struct IBaseEscrow.Immutables","components":[{"name":"orderHash","type":"bytes32","internalType":"bytes32"},{"name":"hashlock","type":"bytes32","internalType":"bytes32"},{"name":"maker","type":"uint256","internalType":"Address"},{"name":"taker","type":"uint256","internalType":"Address"},{"name":"token","type":"uint256","internalType":"Address"},{"name":"amount","type":"uint256","internalType":"uint256"},{"name":"safetyDeposit","type":"uint256","internalType":"uint256"},{"name":"timelocks","type":"uint256","internalType":"Timelocks"}]}],"outputs":[],"stateMutability":"nonpayable"},{"type":"function","name":"publicCancel","inputs":[{"name":"immutables","type":"tuple","internalType":"struct IBaseEscrow.Immutables","components":[{"name":"orderHash","type":"bytes32","internalType":"bytes32"},{"name":"hashlock","type":"bytes32","internalType":"bytes32"},{"name":"maker","type":"uint256","internalType":"Address"},{"name":"taker","type":"uint256","internalType":"Address"},{"name":"token","type":"uint256","internalType":"Address"},{"name":"amount","type":"uint256","internalType":"uint256"},{"name":"safetyDeposit","type":"uint256","internalType":"uint256"},{"name":"timelocks","type":"uint256","internalType":"Timelocks"}]}],"outputs":[],"stateMutability":"nonpayable"},{"type":"function","name":"publicWithdraw","inputs":[{"name":"secret","type":"bytes32","internalType":"bytes32"},{"name":"immutables","type":"tuple","internalType":"struct IBaseEscrow.Immutables","components":[{"name":"orderHash","type":"bytes32","internalType":"bytes32"},{"name":"hashlock","type":"bytes32","internalType":"bytes32"},{"name":"maker","type":"uint256","internalType":"Address"},{"name":"taker","type":"uint256","internalType":"Address"},{"name":"token","type":"uint256","internalType":"Address"},{"name":"amount","type":"uint256","internalType":"uint256"},{"name":"safetyDeposit","type":"uint256","internalType":"uint256"},{"name":"timelocks","type":"uint256","internalType":"Timelocks"}]}],"outputs":[],"stateMutability":"nonpayable"},{"type":"function","name":"rescueFunds","inputs":[{"name":"token","type":"address","internalType":"address"},{"name":"amount","type":"uint256","internalType":"uint256"},{"name":"immutables","type":"tuple","internalType":"struct IBaseEscrow.Immutables","components":[{"name":"orderHash","type":"bytes32","internalType":"bytes32"},{"name":"hashlock","type":"bytes32","internalType":"bytes32"},{"name":"maker","type":"uint256","internalType":"Address"},{"name":"taker","type":"uint256","internalType":"Address"},{"name":"token","type":"uint256","internalType":"Address"},{"name":"amount","type":"uint256","internalType":"uint256"},{"name":"safetyDeposit","type":"uint256","internalType":"uint256"},{"name":"timelocks","type":"uint256","internalType":"Timelocks"}]}],"outputs":[],"stateMutability":"nonpayable"},{"type":"function","name":"withdraw","inputs":[{"name":"secret","type":"bytes32","internalType":"bytes32"},{"name":"immutables","type":"tuple","internalType":"struct IBaseEscrow.Immutables","components":[{"name":"orderHash","type":"bytes32","internalType":"bytes32"},{"name":"hashlock","type":"bytes32","internalType":"bytes32"},{"name":"maker","type":"uint256","internalType":"Address"},{"name":"taker","type":"uint256","internalType":"Address"},{"name":"token","type":"uint256","internalType":"Address"},{"name":"amount","type":"uint256","internalType":"uint256"},{"name":"safetyDeposit","type":"uint256","internalType":"uint256"},{"name":"timelocks","type":"uint256","internalType":"Timelocks"}]}],"outputs":[],"stateMutability":"nonpayable"},{"type":"function","name":"withdrawTo","inputs":[{"name":"secret","type":"bytes32","internalType":"bytes32"},{"name":"target","type":"address","internalType":"address"},{"name":"immutables","type":"tuple","internalType":"struct IBaseEscrow.Immutables","components":[{"name":"orderHash","type":"bytes32","internalType":"bytes32"},{"name":"hashlock","type":"bytes32","internalType":"bytes32"},{"name":"maker","type":"uint256","internalType":"Address"},{"name":"taker","type":"uint256","internalType":"Address"},{"name":"token","type":"uint256","internalType":"Address"},{"name":"amount","type":"uint256","internalType":"uint256"},{"name":"safetyDeposit","type":"uint256","internalType":"uint256"},{"name":"timelocks","type":"uint256","internalType":"Timelocks"}]}],"outputs":[],"stateMutability":"nonpayable"},{"type":"event","name":"EscrowCancelled","inputs":[],"anonymous":false},{"type":"event","name":"EscrowWithdrawal","inputs":[{"name":"secret","type":"bytes32","indexed":false,"internalType":"bytes32"}],"anonymous":false},{"type":"event","name":"FundsRescued","inputs":[{"name":"token","type":"address","indexed":false,"internalType":"address"},{"name":"amount","type":"uint256","indexed":false,"internalType":"uint256"}],"anonymous":false},{"type":"error","name":"InvalidCaller","inputs":[]},{"type":"error","name":"InvalidImmutables","inputs":[]},{"type":"error","name":"InvalidSecret","inputs":[]},{"type":"error","name":"InvalidTime","inputs":[]},{"type":"error","name":"NativeTokenSendingFailure","inputs":[]},{"type":"error","name":"SafeTransferFailed","inputs":[]},{"type":"error","name":"SafeTransferFromFailed","inputs":[]}],"bytecode":{"object":"0x6101003461010c57601f610efc38819003918201601f19168301916001600160401b0383118484101761011057808492604094855283398101031261010c5780519063ffffffff821680920361010c5760200151906001600160a01b038216820361010c573360c05260a0526080526e5af43d82803e903d91602b57fd5bf360205230601152763d602d80600a3d3981f3363d3d373d3d3d363d730000003060881c175f52603760092060e052604051610dd79081610125823960805181505060a05181818160c4015261061f015260c05181818161078701528181610ad601528181610b870152610c0d015260e05181818161071a01528181610aab01528181610b5c0152610be20152f35b5f80fd5b634e487b7160e01b5f52604160045260245ffdfe6080604090808252600480361015610015575f80fd5b60e05f35811c9283630af975581461088d5750826323305703146107ab5782632dd310001461073d57826334862b6a146106e55782634649088b1461058157826355e7de24146104745782636c10c0c8146102c657826390d3252f146101f3578263daff233e146100eb57505063f56cd69c14610090575f80fd5b346100e7575f7ffffffffffffffffffffffffffffffffffffffffffffffffffffffffffffffffc3601126100e757602090517f00000000000000000000000000000000000000000000000000000000000000008152f35b5f80fd5b8390346100e7576101007ffffffffffffffffffffffffffffffffffffffffffffffffffffffffffffffffc3601126100e75763ffffffff60e43580921c9160601c1681018091116101c75742106101a157610144610b30565b61016f73ffffffffffffffffffffffffffffffffffffffff60a4359080604435169060843516610c3d565b61017b60c43533610cd5565b7f6e3be9294e58d10b9c8053cfd5e09871b67e442fe394d6b0870d336b9df984a95f80a1005b517f6f7eac26000000000000000000000000000000000000000000000000000000008152fd5b6011837f4e487b71000000000000000000000000000000000000000000000000000000005f525260245ffd5b5082346100e7576101007ffffffffffffffffffffffffffffffffffffffffffffffffffffffffffffffffc3601126100e75773ffffffffffffffffffffffffffffffffffffffff908160643516330361029e5761025160e435610a21565b42106102765761016f82610263610b30565b60a4359080604435169060843516610c3d565b9050517f6f7eac26000000000000000000000000000000000000000000000000000000008152fd5b9050517f48f5c3ed000000000000000000000000000000000000000000000000000000008152fd5b5082346100e7576101407ffffffffffffffffffffffffffffffffffffffffffffffffffffffffffffffffc3601126100e75781359160243573ffffffffffffffffffffffffffffffffffffffff9182821682036100e7576101007fffffffffffffffffffffffffffffffffffffffffffffffffffffffffffffffbc3601126100e7578260a43516330361044d576101243561036081610a68565b42106104255761036f90610a21565b4210156103fe5761037e610a7f565b845f5260205f20606435036103d7577fe346f5c97a360db5188bfa5d3ec5f0583abde420c6ba4d08b6cfe61addc17105602086866103c360e4358760c4358a16610c3d565b6103d06101043533610cd5565b51908152a1005b83517fabab6bd7000000000000000000000000000000000000000000000000000000008152fd5b83517f6f7eac26000000000000000000000000000000000000000000000000000000008152fd5b5083517f6f7eac26000000000000000000000000000000000000000000000000000000008152fd5b83517f48f5c3ed000000000000000000000000000000000000000000000000000000008152fd5b5082346100e7576101207ffffffffffffffffffffffffffffffffffffffffffffffffffffffffffffffffc3601126100e7576101007fffffffffffffffffffffffffffffffffffffffffffffffffffffffffffffffdc3601126100e75773ffffffffffffffffffffffffffffffffffffffff60a4351660205f606484517f23b872dd00000000000000000000000000000000000000000000000000000000815233878201523060248201528635604482015282855af1908161055f575b501561053957005b517ff4059071000000000000000000000000000000000000000000000000000000008152fd5b90503d15610579575060015f5114601f3d11165b83610531565b3b1515610573565b8390346100e7576101407ffffffffffffffffffffffffffffffffffffffffffffffffffffffffffffffffc3601126100e75782359073ffffffffffffffffffffffffffffffffffffffff908183168093036100e757602435916101007fffffffffffffffffffffffffffffffffffffffffffffffffffffffffffffffbc3601126100e75760a4351633036106bc57610617610a7f565b61012435901c7f0000000000000000000000000000000000000000000000000000000000000000014210610694577fc4474c2790e13695f6d2b6f1d8e164290b55370f87a542fd7711abe0a1bf40ac935081610684576106778133610cd5565b82519182526020820152a1005b61068f813384610c3d565b610677565b5050517f6f7eac26000000000000000000000000000000000000000000000000000000008152fd5b505050517f48f5c3ed000000000000000000000000000000000000000000000000000000008152fd5b83346100e7575f7ffffffffffffffffffffffffffffffffffffffffffffffffffffffffffffffffc3601126100e757602090517f00000000000000000000000000000000000000000000000000000000000000008152f35b83346100e7575f7ffffffffffffffffffffffffffffffffffffffffffffffffffffffffffffffffc3601126100e7576020905173ffffffffffffffffffffffffffffffffffffffff7f0000000000000000000000000000000000000000000000000000000000000000168152f35b8390346100e7576107bb366109c2565b91909373ffffffffffffffffffffffffffffffffffffffff91826060850135163303610865578301356107ed81610a68565b4210610425576107fc90610a21565b4210156103fe5761080c83610bb7565b845f5260205f206020840135036103d7577fe346f5c97a360db5188bfa5d3ec5f0583abde420c6ba4d08b6cfe61addc17105602086866103d060c08861085d60a08201353360808401358c16610c3d565b013533610cd5565b5083517f48f5c3ed000000000000000000000000000000000000000000000000000000008152fd5b848284346100e75761089e366109c2565b9290948184013580921c63ffffffff8360201c16810180911161099657421061096f57506108cb90610a21565b4210156109485773ffffffffffffffffffffffffffffffffffffffff906108f183610bb7565b845f5260205f206020840135036103d7577fe346f5c97a360db5188bfa5d3ec5f0583abde420c6ba4d08b6cfe61addc17105602086866103d060c08861085d60a082013560608301358b1660808401358c16610c3d565b82517f6f7eac26000000000000000000000000000000000000000000000000000000008152fd5b90507f6f7eac26000000000000000000000000000000000000000000000000000000008152fd5b6011847f4e487b71000000000000000000000000000000000000000000000000000000005f525260245ffd5b906101207ffffffffffffffffffffffffffffffffffffffffffffffffffffffffffffffffc8301126100e7576101007fffffffffffffffffffffffffffffffffffffffffffffffffffffffffffffffdc6004359301126100e757602490565b63ffffffff8160e01c9160401c168101809111610a3b5790565b7f4e487b71000000000000000000000000000000000000000000000000000000005f52601160045260245ffd5b63ffffffff8160e01c91168101809111610a3b5790565b73ffffffffffffffffffffffffffffffffffffffff6055600b60405161010090816044823720604051907f0000000000000000000000000000000000000000000000000000000000000000604083015260208201527f000000000000000000000000000000000000000000000000000000000000000081520160ff815320163003610b0657565b60046040517fa269484a000000000000000000000000000000000000000000000000000000008152fd5b73ffffffffffffffffffffffffffffffffffffffff6055600b60405161010090816004823720604051907f0000000000000000000000000000000000000000000000000000000000000000604083015260208201527f000000000000000000000000000000000000000000000000000000000000000081520160ff815320163003610b0657565b6055600b73ffffffffffffffffffffffffffffffffffffffff926040516101008092823720604051907f0000000000000000000000000000000000000000000000000000000000000000604083015260208201527f000000000000000000000000000000000000000000000000000000000000000081520160ff815320163003610b0657565b9160446020925f92604051917fa9059cbb0000000000000000000000000000000000000000000000000000000083526004830152602482015282855af19081610cb3575b5015610c8957565b60046040517ffb7f5079000000000000000000000000000000000000000000000000000000008152fd5b90503d15610ccd575060015f5114601f3d11165b5f610c81565b3b1515610cc7565b5f80809381935af13d15610d9c5767ffffffffffffffff3d818111610d6f5760405191601f82017fffffffffffffffffffffffffffffffffffffffffffffffffffffffffffffffe0908116603f0116830190811183821017610d6f5760405281525f60203d92013e5b15610d4557565b60046040517f8a0332d5000000000000000000000000000000000000000000000000000000008152fd5b7f4e487b71000000000000000000000000000000000000000000000000000000005f52604160045260245ffd5b610d3e56fea2646970667358221220a44389ba47e38a813134b753c511415b0b0ed683efe24517c37be7521b2d97f964736f6c63430008170033","linkReferences":{}},"methodIdentifiers":{"FACTORY()":"2dd31000","PROXY_BYTECODE_HASH()":"34862b6a","RESCUE_DELAY()":"f56cd69c","cancel((bytes32,bytes32,uint256,uint256,uint256,uint256,uint256,uint256))":"90d3252f","deposit(uint256,(bytes32,bytes32,uint256,uint256,uint256,uint256,uint256,uint256))":"55e7de24","publicCancel((bytes32,bytes32,uint256,uint256,uint256,uint256,uint256,uint256))":"daff233e","publicWithdraw(bytes32,(bytes32,bytes32,uint256,uint256,uint256,uint256,uint256,uint256))":"0af97558","rescueFunds(address,uint256,(bytes32,bytes32,uint256,uint256,uint256,uint256,uint256,uint256))":"4649088b","withdraw(bytes32,(bytes32,bytes32,uint256,uint256,uint256,uint256,uint256,uint256))":"23305703","withdrawTo(bytes32,address,(bytes32,bytes32,uint256,uint256,uint256,uint256,uint256,uint256))":"6c10c0c8"},"id":6}